S01300007665635F6164645F696E73742E68657896
S31510000000B701400073A0017CB721800073A00130B6
S3151000001081400141814101428142014381430144B2
S315100000208144014581450146814601478147014882
S31510000030814801498149014A814A014B814B014C52
S31510000040814C014D814D014E814E014F814F17015B
S315100000500300130121FB9701000093818106739021
S315100000605130A14173A00130B7010300CD2173A017
S31510000070217C9301F00773A0117C99619B81C110BB
S3151000008073A0517CEF20C00801459300A005130111
S31510000090B0069301C007B74144009B813133B201CA
S315100000A0938121220E8201459300C0021301B003F1
S315100000B0B70147009B819146BE01938101723DA015
S315100000C0A1A801000100010081A80100B1A0010052
S315100000D0A1A001000100010081A0010035A80100C6
S315100000E025A801000100010005A875BF2338E1FE0F
S315100000F02334F1FE732720349377F7016D93418BE8
S315100001003E970E07970700009387C72FBA979863F5
S31510000110833781FE71170287232ED1FE232CE1FE31
S31510000120232AF1FE732720349377F7016D93418BC1
S315100001303E970E07970700009387C72CBA979843E8
S315100001408326C1FF832741FF711702871300000022
S31510000150130000001300000013000000130000003D
S31510000160130000001300000013000000130000002D
S31510000170130000001300000013000000130000001D
S31510000180130000001300000013000000130000000D
S315100006C06374D6000BD5C5008280130000000100AC
S315100006D082800100130000001300000013000000C8
S315100006E01D710B5A31FF0B5B51FD0B5C71FBA2E8C0
S315100006F066E486ECC68CA6E4CAE093F83800AA89AC
S315100007002E8A328BB68ABA8B3E84428C6392080844
S315100007108B37087C338987403299B284637EF4061E
S315100007202686D6868504D285130500028299E3991A
S3151000073024FF29C022990100330689407D140BC578
S315100007408B80D686D285CA8482997DF493FC2C0040
S3151000075063820C02338B64410B3C0C7C637C8B01F3
S315100007602686D686D28513050002050B8504829946
S31510000770E3688BFFE660466406690B4A31FF0B4B54
S3151000078051FD0B4C71FBA26C2685A66425618280F7
S315100007903289B284C5F35DBF328949FCE1BF0100DD
S315100007A01D71A6E4A654CAE00B5A31FF56F486EC26
S315100007B0A2E8C28FBA8E0658BE89468993FA0440BB
S315100007C051CF5AF08BB7541413FA040113041006C0
S315100007D0DDE3593481470A87A548130B000221A08F
S315100007E06386670D968EB3D2FE03768E8507B303A6
S315100007F0F7000B9EF2231373FE0F1B0F03033B032D
S31510000800640033BEC801137FFF0F1373F30F0B136E
S31510000810CF41A38F63FEE3F5FEFD93F824006387B3
S31510000820081263130A1A027BA68813030002638B4D
S3151000083067006381091033832700130ED00223004B
S31510000840C3018507EFF0DFE9E6604664A664066932
S315100008500B4A31FFA27A25618280010093F8F4FEDB
S315100008608128639D0A00C6845AF08BB75414014A36
S3151000087013041006B9DF13041004A1BFA68713FAD8
S315100008802700631B0A100B33097C6304082013FF2F
S31510000890170063000F10638D09287D386303032446
S315100008A0C6848147930A00400A8739A893F8240022
S315100008B06396080C0B33097C631E080863FD6720DA
S315100008C0027B13FF14000148130E0002930E00035F
S315100008D06389C7018507B308F700A38FD8FFE3E93B
S315100008E067FE63010F120B3E087C63FDC711930E62
S315100008F00002130F00030100638CD7118507B3089C
S31510000900F700A38FE8FFE399C7FF63070A0E639109
S315100009100A1CF287631D0E08C147638FFF1C8947A7
S31510000920638AFF1E930700032300F100A6888547FC
S31510000930E39309F013F34800630003103383270091
S31510000940130EB0022300C3018507EDBD0B33097CDE
S315100009506308080413FF1400A688630B0F0C638248
S315100009600914027B7D38E3E167F60B3E087CE3E071
S31510000970C7F93E8EE31D0AF841A00100A68863015F
S315100009800A08639F0A066302F91A6300F81A027BC3
S3151000099091A0E31703F0010081470A8759BD0100B2
S315100009A0E3E067F2E3010AE863940A02027B630755
S315100009B0F3000B33087CA688631EF3001383F7FF3E
S315100009C0E30C03F4B1A801000B33097CE3800AFEA3
S315100009D0027BA6884143638F6F060943638F6F08B6
S315100009E013030002E38067E63E8385070A93130E1E
S315100009F000032300C30115BDA688F2873DB501008B
S31510000A00027B89B563090A06E3830AFAA688D9B771
S31510000A10A688E3090AE2E3970AE2E31CF9F87D43A4
S31510000A20C14863831F138948638F1F13A6887DBF30
S31510000A30E3FA67F6027B49BD13F38800E30403E08B
S31510000A40130E00023384C701330324002300C3FFAF
S31510000A508507CDBB93F4040213030002B1ECE383C4
S31510000A6067DE33846700130E8007330324002300E8
S31510000A70C3FF8507B5B7A6884DBB13030002E383F2
S31510000A8067DC3E8385070A93130E20062300C301F5
S31510000A9081BFE30303F0C6848147930A00400A87A7
S31510000AA00DB593F8C800027B638308007D38054FA7
S31510000AB0E3EC67E05DBD0100E38667D83384670029
S31510000AC0130E8005330324002300C3FF850709BFD7
S31510000AD0F287A68801B73E8E63140A0A027BA6889F
S31510000AE095B30B3E087C81470A87E30008D4C68479
S31510000AF08147930A0040E5BB93F7040295E39307F9
S31510000B0080072300F10093070003A300F100A688D5
S31510000B10894705B38D67938727062310F100C5BF54
S31510000B20930780052300F100F9BF027B7D43CDBDFD
S31510000B30B18BC6849DEB0B3E087C930A00400A8756
S31510000B40E31103D66DB30100F9179387070293F8E3
S31510000B5004028A976381080293088005238017FF91
S31510000B60A6889A8751B5A68839BF8147930A00404F
S31510000B700A877D382DBF93088007238017FFCDB7CE
S31510000B80027BE3880AD8A9B71300000013000000FF
S31510000B9001C59C618C65828782801300000001006C
S31510000BA011E18280FD556F10A0471300000001006F
S31510000BB01971D2E83E8AD327A5A2A6F4CAF0CEECC4
S31510000BC0D6E4DAE086FCA2F8AA842E89B28AB6891F
S31510000BD0428B638B0712B727001087B70745D317C9
S31510000BE0F5A263930728B727001087B78745D397D1
S31510000BF0A7A2EDE3B727001087B70746D397A7A29A
S31510000C0063940724B727001087B78746D317F5A232
S31510000C10639C0722D30700F2D317F5A2814863918C
S31510000C200722994793760B400B97D7408A858147C1
S31510000C30254613080003130500020100637AE60037
S31510000C408507B386F500A38F06FF7D37E398A7FEC9
S31510000C50531505C2B7260010938606408BE6E67636
S31510000C60D30705D237280010073708479B0605001B
S31510000C70D377F50AD3F7D712539637C2537636D2AF
S31510000C80D3F7C70A5313F7A2630003120506D377E7
S31510000C9036D25383F6A2630503009B061500014660
S31510000CA0630E07101B0E07FE3B0EFE002948A54ECD
S31510000CB0630DC7293375060385073383F5007D3722
S31510000CC01B050503A30FA3FE3355060363FCCE24B1
S31510000CD02A86F9BF93774800638E071437270010CA
S31510000CE01307071F91474674E670DA885288066B19
S31510000CF0466ACE865686E669A66ACA852685067926
S31510000D00A67409616FF0DF9D5EFC62F866F4937756
S31510000D10380032849DE38D470B370A7C63FF470109
S31510000D201304D6FF3A94B28B5E86CE86850BCA859F
S31510000D30130500028294E3998BFE372C0010130CD6
S31510000D40AC20814BF55C01000B457C813306744168
S31510000D50CE86CA85FD1B8294E3989BFF137B2B00DE
S31510000D600D0463040B020B3A0A7CB307544163FE6D
S31510000D70470101002286CE86CA85130500020504A6
S31510000D808294B3075441E3E747FFE27B427CA27C9F
S31510000D90E67022854674A6740679E669466AA66ADE
S31510000DA0066B0961828001005395E7A2E31A05EEEE
S31510000DB0631E061E0506E31707EE0100538706D2CB
S31510000DC0873708471B871600799B5375E50A531614
S31510000DD0F5A28B16C740130800022947638807112E
S31510000DE03BE6E60285073385F500BBC6E6021B0621
S31510000DF00603A30FC5FEFDF213773B00854663027B
S31510000E00D71C13070002638BE70063870816338726
S31510000E1027009306D0022300D70085072E87DA888D
S31510000E205288CE865686CA852685EFF07F8B2A8411
S31510000E3085B7010037270010130707208D4765B5C2
S31510000E4053F5A70A8548F1BB4674E6705A88D287CF
S31510000E50066B466ACE865686E669A66ACA852685D2
S31510000E600679A6740961ADAA5EFC62F866F49377FA
S31510000E70380032849DE391470B370A7C63FF4701A4
S31510000E801304C6FF3A94B28B5E86CE86850BCA854E
S31510000E90130500028294E3998BFE372C0010130C75
S31510000EA03C21814BF15C01000B457C81330674417A
S31510000EB0CE86CA85FD1B8294E3989BFF137B2B007D
S31510000EC01104E3040BEC0B3A0A7CB3075441E3FE1E
S31510000ED047EB01002286CE86CA851305000205045B
S31510000EE08294B3075441E3E747FF45B513773B00B8
S31510000EF08546E315D7F2E3030AF2638208067D3AC4
S31510000F00E3FE47F193060002130500030B360A7C35
S31510000F10E386D7F085073387F500A30FA7FEE3E92D
S31510000F20C7FEC5B5130600026381C7020B33077CE3
S31510000F303E93130500030100638C67008507338712
S31510000F40F500A30FA7FEE399C7FE9307000261B54C
S31510000F500A931307E00285072300E300ADBD13775C
S31510000F60CB0039CB7D3A0B370A7CE3EDE7F8130754
S31510000F700002E385E7EA010013774B0011CB3387B4
S31510000F8027009306B0022300D700850741BD010054
S31510000F9013778B00E30407E8930600023387D70024
S31510000FA00A972300D7FE850795BD01001375160015
S31510000FB0E30805CE050601B50B370A7CE3E4E7F432
S31510000FC0B1BDE3000AE4E38C08F87D3A0B370A7CDE
S31510000FD0E3EAE7F2E39D07E391B513000000010091
S31510000FE01D71CAE03E89D327A5A20B5A31FFA2E88C
S31510000FF0A6E456F486ECAA892E8A3284B68AC2846E
S31510001000638A071CB727001087B78745D397A7A20F
S315100010106392071CB727001087B70745D317F5A2A9
S31510001020639A071AD30700F2D317F5A25AF05EECAB
S3151000103062E8D30605E289C7D317A522D38607E24D
S315100010408BB746FB9B8717C0538707D237260010EE
S3151000105007368647B72700101306F03F87B60748AE
S31510001060B725001052168BB706CCD18F87B7854897
S315100010704377C76AD38607F2D3F7F60AB727001065
S3151000108087B6074937260010C3F7D77287368649C1
S31510001090B727001007B60747B7270010539607C2A1
S315100010A007B0074AB727001007B1874AD30706D2F9
S315100010B0B727001007B7074BB7270010C3F6D7623C
S315100010C087B5874BB727001087B0074CB725001098
S315100010D0D39706C207B6854CB72500101945D38697
S315100010E007D29B87F73FD2179B0B0600D3F6061243
S315100010F007B0054D93F504400B17B540C7F7276A9F
S31510001100D3F6F7125376F60AD3F7F70253F7E61A21
S315100011105377B70253F7E61A53771702D3F6E61A40
S31510001120538707F2D3F6C602D3F7D71AD3F70702B7
S31510001130D3F7E712D38807E2538708F2D38706F26C
S31510001140D397E7A299C7D377B71A9B0BF6FFD38825
S3151000115007E28567938707801B8B3B061306600C97
S31510001160333B6601E58F110B13FC2400C1C7B7276B
S31510001170001087B7874D538706F2D387E7A2638F90
S315100011800712B727001087B7074ED317F7A2638742
S315100011900712BB077741FD37B3ABEB008B177041D6
S315100011A0D30700F23E87D317F5A2639F07127D7807
S315100011B01308F87F538506F233F80401027BE26BBD
S315100011C0426CCA87D6862286D2854E851368084019
S315100011D001A801002688CA87D6862286D2854E8522
S315100011E04664E660A66406690B4A31FFA27A256159
S315100011F06FF01F9C63762B01630C0C0C094C0100DD
S31510001200638A0B00D38706F2538708F2D3F7E71ADF
S31510001210D38607E2D30700F25316F5A27D785385DD
S3151000122006F269EA1308F87F33F80401D686228697
S31510001230D2854E85EFF0DF972A869307500693F4F2
S315100012400402130550040B959740D686D285930455
S31510001250160082999BD7FB41954633C7FB007D3B11
S31510001260268636E41D9F5AE09BD7FB01D686D2858B
S315100012704E8581482948EFF0AFD2AA8463020C024A
S31510001280330485400B39097C637C24012686D68677
S31510001290D28513050002050485048299E36824FFAC
S315100012A0E6604664027BE26B426C06690B4A31FFCC
S315100012B0A27A2685A66425618280010011CF89CD88
S315100012C07D3763752B0163050C00094C81470DBFF3
S315100012D0BB07694135B70100E37A2BFFE30A0CFE21
S315100012E08147094C31BF01007D785315E722130859
S315100012F0F87FD9B55315A52235B7130000000100A4
S3151000130035714AE1CEFCD2F86EFC06ED22E93709BA
S31510001310001083C706001309096D2E8AB2890B19AE
S31510001320B542814D63830754DEECB72B0010D6F41B
S315100013303A84B72A001013874B2A26E5DAF0EAE03A
S31510001340E6E4368D938A0A263AEC130B5002C14412
S3151000135019A801006E86CE86D285850D029983471F
S315100013600D0063890712050D3E85E39567FF014859
S315100013706A830B4513989B0705FE93F7F70F63E5F2
S31510001380F4008BC7FA4482871B0705FD1377F70F06
S31510001390A54763F3E70A1307A002814B6306E51A14
S315100013A01307E002814C6303E50C1B0785F91377DD
S315100013B0F70FC94663EAE604E2670BC7E7440287FC
S315100013C01368180001281A8D65B7010013682800E4
S315100013D001281A8D71BF01001368480001281A8D63
S315100013E041BF01001368080101281A8D51B7010089
S315100013F01368880001281A8DA5BF0100136808100C
S3151000140003451D0001280503130770061A8D636F27
S31510001410A70A13074002E37FA7F21B07B5FD137750
S31510001420F70F93062004E3E7E6F2B726001093863B
S31510001430062F0BC7E6440287BE86814B1B972B00EF
S315100014403B0777011B171700299F034503009B0BCA
S3151000145007FD1B0705FD1377F70F1A8D0503E3FF2D
S31510001460E6FC1307E002814CE311E5F403451D0089
S31510001470136808401B0705FD1377F70F254601284B
S315100014809A86637DE6081307A0026300E5261A8D87
S31510001490050321BFAA64A67A067BE66BA66C066DC9
S315100014A01B840D00B3B73D011386F9FFD2850B9649
S315100014B0FD42CE8601450299EA6022854A640A6990
S315100014C0E679467AE27D0D61828001001B0775F987
S315100014D01377F70FBD46E3EFE6E685462566B39626
S315100014E0E60013061604F18E6390061EA9466307DE
S315100014F0D7069D47E310F7E6936718020B478478E3
S31510001500812741486E860B58F1F8E6888147CE86CA
S31510001510D2854A85EFF0CFA8AA8D91B51B972C00DE
S315100015203B0797011B171700299F0BC516889B0CA5
S3151000153007FD1B0705FD1377F70FE371E6FE368DE2
S31510001540138316009DB501008B4B845863CA0B0894
S3151000155003451D001A8D0503A1B50100A2870BC70F
S315100015608778E2E8FD560BB60C7C034507000B9610
S3151000157096413EF43A963A8C6306053A6305CC00DA
S315100015808B461C88E5FE3B04EC4033369401A2865C
S315100015908B96CC4093770840137628003EE832F0BD
S315100015A00B94F642630D061689473EF06E8CB30D0A
S315100015B0B7410100C26791C71B87FCFF638B0C0004
S315100015C0BA8C6286CE86D285050C02990BC58D81A2
S315100015D075F182776391072EE28D2274466C41B3C2
S315100015E01368280003451D0001281A8DBB0B704196
S315100015F005037DB303451D0013078006630FE5241D
S31510001600136808080128050301B503451D001307D3
S31510001610C006630CE5221368081001280503EDB314
S31510001620130770066301E50E130770046304E520C3
S31510001630130750046307E52008206E86DE87668749
S31510001640CE86D2854A85EFF0BF992104AA8D01BBBB
S31510001650130760046301E50C08206E86DE87668733
S31510001660CE86D2854A85EFF0AFD42104AA8DC5B9AE
S31510001670E2E813782800130C8400938C1D00630D88
S31510001680081E03450400CE866E86D285029905474C
S315100016906370772D9B87EBFF8BB7077C890DBE9DFB
S315100016A06686CE86850CD285130500020299E399CB
S315100016B09DFF6284466C65B16E86CE86D285130513
S315100016C05002850D029961B9E2E81307F006630925
S315100016D0E5086379A7281307800741466303E508E1
S315100016E01378F8FE01282946ADA88B48845803457F
S315100016F02D0013A708008B18E042090D9B8C0800DB
S3151000170013031D005DB10567130707803367E800F3
S315100017101B08070015B713680802012835BF637147
S31510001720742B1B88FBFF3B0888400B38087C1384FE
S315100017301D00330C880011A005043AF06E86CE8683
S31510001740D2851305000202990277A28DE31684FF53
S31510001750034507001B841B00E30005E802F0B9B53A
S315100017602146137728FF937638FF012781261378B1
S3151000177008408B16074313F70620B685130C840012
S31510001780631A071C13F70610631B072013F70604CA
S315100017906317071893F50508638F05200357040090
S315100017A08B5BD1F8E68832880B37077C6E868147CB
S315100017B08DA8E2E813078005630BE50A13072006D8
S315100017C00946E300E5FA1377F8FE9376E8FE01275B
S315100017D08126137808408B16074113F70620130C41
S315100017E08400B6856313071013F70610631B0718DA
S315100017F013F706041C406310071293F50508638659
S31510001800051A8BA7073C9BD5F74033C7B7000D9F2A
S315100018100B37073C8B5BD1F8E6889BD7F7016E86B2
S315100018202948CE86D2854A85EFE09FF76284AA8D35
S31510001830466C35B60567130707803367E8001B0843
S315100018400700136808020128C5BB13680830034552
S315100018502D00012813033D0045BE1368080C0345EF
S315100018602D00012813033D0045B6014425B9136820
S31510001870080201284146F5B505476375770D9B8724
S31510001880EBFF8BB7077C3EE8BE9CEE8B5E86CE8662
S31510001890850BD285130500020299E3997CFF034557
S315100018A00400C267890D6686CE86D285BE9D628487
S315100018B00299466C6DB4E28D637474091B88FBFF44
S315100018C03B0888400B38087C13841D00330C8800B5
S315100018D019A0010005046E86CE86D2851305000276
S315100018E0A28D0299E31884FFC5B91C60E68813D748
S315100018F0F7433345F7008B5BD1F86E863307E54027
S31510001900FD932948CE86D2854A85EFE07FE9628429
S31510001910AA8D466CA9B493F7F70F3E87E5BD03472A
S315100019200400BDBD1374084051CC1378280001443F
S31510001930E31408F8930700403EE80144E3930BDEF6
S315100019406E8C59B9034504006E86CE86D2850299EF
S31510001950E68D85B318603288E6888B5BD1F86E8683
S3151000196081474DB79376F8FE1307900681266316C6
S31510001970E5041377E8FE0127137808408B16074312
S31510001980A9BD1C60E68813D7F7433345F7008B5B78
S31510001990D1F86E863307E540FD93294859B518608E
S315100019A0E6888B5BD1F8328811B59BD5F74133C7E2
S315100019B0B7000D9F85B51840E5B33688294655B34F
S315100019C00524EDB6937728003EE8E39707EEB5B702
S315100019D00111AA86371500102E87130505BA2C009B
S315100019E07D5606ECEFF0DF91E26005618280010022
S315100019F041111375F50FFD5506E4EF006062A26004
S31510001A00014541018280130000001300000001000F
S31510001A1041110B5411F82A840345050001C9010030
S31510001A20FD55EF00E05F0B4514887DF9FD552945FE
S31510001A30EF00005F0B4411F801454101828001005F
S31510001A40FD556F00E05D130000001300000001005B
S31510001A501D7113038102371E00100B56D1FE2EF492
S31510001A60BAE0AA868A851A8713050EBA7D5606EC41
S31510001A70BEE4C2E8C6EC1AE4EFF09F88E260256186
S31510001A808280010013000000130000001300000004
S31510001A905D7113030102AE8E370E00100B56D1FC8A
S31510001AA03AF8AA85F6861A8713050E6C7D5606EC4B
S31510001AB03EFCC2E0C6E41AE4EFF09F84E260616186
S31510001AC082800100130000001300000013000000C4
S31510001AD05D71130381022E8FB28E370E001036F40D
S31510001AE03AF8AA857A86F6861A8713050E6C06ECDE
S31510001AF03EFCC2E0C6E41AE4EFF09F80E26061614A
S31510001B008280010013000000130000001300000083
S31510001B10AE883288B70700103687AA854686C286F1
S31510001B201385076C6FF0CFFD130000001300000043
S31510001B301D7113038103371F0010AA8E2E8E36FCDB
S31510001B40BAE0B2860C081A8713050FB97D5606F44B
S31510001B508B5EC1FBBEE4C2E8C6EC1AE4EFF04FFAA6
S31510001B60A2702561828000000000000000000000C5
S31510001B704111F32710C03EC6324541018280010053
S31510001B80B7070160417723ACE7FE828000000000B2
S31510001B90000000000000000000000000000000002F
S31510001BA0B7E7F5059B870710BBD7B70218650CC9B1
S31510001BB08346C70093E606082306D7008BB6472C44
S31510001BC02300D7008BB7C74C2302F7008347C70003
S31510001BD093F7F7072306F700828013000000010031
S31510001BE04CC98547638EF5028947638BF5009DE5E1
S31510001BF018658347C70093F7770F2306F70082808F
S31510001C0018658347C70093E787002306F700186512
S31510001C108347C70093E707012306F7008280010078
S31510001C2018658347C70093E787002306F7001865F2
S31510001C308347C70093F7F70E2306F700828001004B
S31510001C404CCD89476380F50463E2B702A1CD1865D0
S31510001C508347C70093F7D70F2306F7001865834706
S31510001C60C70093E717002306F70082808D4763931A
S31510001C70F50418658347C70093E737002306F70076
S31510001C808280010018658347C70093F7E70F230684
S31510001C90F70018658347C70093E727002306F70068
S31510001CA08280010018658347C70093F7C70F230684
S31510001CB0F7008280828013000000130000000100EC
S31510001CC00CCD89CD85476383F500828018658347DF
S31510001CD0C70093E747002306F700828018658347FD
S31510001CE0C70093F7B70F2306F70082801300000092
S31510001CF00CD18280130000001300000013000000B6
S31510001D004CD1828013000000130000001300000065
S31510001D1081E9B7270020232005001CE501458280B4
S31510001D200545828013000000130000001300000018
S31510001D30C1671841FD176301F70A9441B7E7F50526
S31510001D409B870710BBD7D702186514C98346C700EF
S31510001D50054693E606082306D7008BB6472C2300C4
S31510001D60D7008BB7C74C2302F7008347C70093F7FA
S31510001D70F7072306F7009C455CC9638BC70A09471A
S31510001D80638CE70EA1CFDC4509475CCD6384E7067B
S31510001D906368F70CD5CF18658347C70093F7D70F3D
S31510001DA02306F70018658347C70093E71700230635
S31510001DB0F700DC411CCDA5C305476399E7001865FC
S31510001DC08347C70093E747002306F7000BC7F5E4E0
S31510001DD018D15CD1014582800545828018658347FC
S31510001DE0C70093F7770F2306F700DC4509475CCD4C
S31510001DF0E390E7FA18658347C70093F7E70F2306C2
S31510001E00F70018658347C70093E727002306F700F6
S31510001E10DC411CCDD5F318658347C70093F7B70F80
S31510001E202306F7000BC7F5E418D15CD10145828073
S31510001E3018658347C70093E787002306F7001865E0
S31510001E408347C70093F7F70E2306F7002DBF01004F
S31510001E5018658347C70093F7C70F2306F70091BF8E
S31510001E600D47E398E7F418658347C70093E73700F3
S31510001E702306F7003DBF010018658347C70093E7A7
S31510001E8087002306F70018658347C70093E7070105
S31510001E902306F700CDBD130000001300000001005B
S31510001EA0C167FD17233005021CC101458280010060
S31510001EB05C5189CF186501008347470193F70702E4
S31510001EC0E5DF2300B70001458280010005458280C9
S31510001ED001458280000000000000000000000000A4
S31510001EE039710B5B51F92A8B2E850B5A31FB0B5925
S31510001EF091FC0B5411FE2E8AB28AEF00602D9309C5
S31510001F00150093F909F01389091023300B009389F2
S31510001F10092001004A85EF00A02AAA8425C5D68685
S31510001F205286CA85EFF0DFBE2A84634F05007D19FD
S31510001F30636425032685EF00A02A636A34011B0912
S31510001F40140093890910F9B72685EF0060294E8988
S31510001F5093890910C1B7010001ED22850B4411FECA
S31510001F600B4991FC0B4A31FB0B4B51F921618280D5
S31510001F702685EF00E0232330AB0019C52685EF0038
S31510001F802026E1BF5154D1BF23309B00F9B7010081
S31510001F905D711303010232F01A8606EC36F40B5704
S31510001FA0F1FEC2E0C6E41AE4EFF09FF3E26061616D
S31510001FB08280000000000000000000000000000009
S31510001FC01D479307101C7607DE07B70681002320EE
S31510001FD0070023A8D7408280000000000000000000
S31510001FE000000000000000000000000000000000DB
S31510001FF0014582801300000013000000130000004A
S315100020000145828013000000130000001300000039
S315100020100145828000000000000000000000000062
S31510002020B70701109375F50F1385870051B5010099
S315100020307971F57285670B5411FC0B5991FA4EE4C0
S3151000204016913306F1008A8585471308104013054B
S31510002050104001009B86F7FF3B07F84053F706D068
S31510002060D37707D013972700B306B700329727AE5A
S31510002070E6FE272EF7FE8507E39EA7FC8967330841
S31510002080F10085670A85B305F100054793081040EE
S31510002090931727003386A700B386B7008727C6FF96
S315100020A007A7C6FFC297D3F7E710050727AEF7FEB7
S315100020B0E31017FF3725001013058521EFF05F9504
S315100020C0B724001089673309F100938484240144EE
S315100020D0A94901008B6789449B050400D3870742F1
S315100020E026850504538607E2EFF09F96E31434FF26
S315100020F08D6216910B4411FC0B4991FAA2690145A8
S315100021004561828000000000000000000000000011
S3151000211079710B5411FC37040110130484001567F0
S315100021208D47130707B082178546228581453AE405
S315100021303EE836CEEFF0DFBD2C002285EFF05FBF14
S31510002140EFF01FEF2285EFF0BFD50B4411FC0145D0
S3151000215045618280000000000000000000000000C1
S315100021600000000000000000000000000000000059
S31510002170828001001300000013000000130000000D
S30710002180828045
S315100021F0666E692B00000000000000000000000061
S31510002200666E6900000000006E616E00000000003E
S31510002210666E692D000000004669727374203130B5
S3151000222020726573756C7473206F6620766563749F
S315100022306F72206D756C7469706C69636174696F07
S315100022406E3A000000000000726573756C745B25B1
S31510002250645D203D20252E32660A00000000000035
S31510002260F01300108813001088130010E4130010E8
S31510002270881300108813001088130010881300109C
S31510002280881300108813001088130010D81300103C
S3151000229088130010CC130010881300108813001038
S315100022A0C0130010F415001008140010FC130010D1
S315100022B0081400100A160010081400100814001054
S315100022C00814001008140010081400100814001048
S315100022D008140010FC130010081400100814001045
S315100022E0081400100814001008140010FC13001035
S315100022F0B816001054130010541300105413001085
S3151000230054130010541300105413001054130010DB
S3151000231054130010541300105413001054130010CB
S3151000232054130010541300105413001054130010BB
S3151000233054130010541300105413001054130010AB
S31510002340541300105413001054130010541300109B
S31510002350541300105413001054130010541300108B
S31510002360541300105413001054130010541300107B
S3151000237020160010501600102016001054130010CE
S31510002380541300105413001054130010541300105B
S31510002390541300105413001054130010541300104B
S315100023A0541300105413001054130010541300103B
S315100023B0541300105413001054130010B2170010C9
S315100023C0541300105413001054130010541300101B
S315100023D0541300105413001054130010541300100B
S315100023E054130010B217001070160010B217001018
S315100023F020160010501600102016001000000000C5
S31510002400000000000000F03F000000000000244023
S3151000241000000000000059400000000000408F40FE
S31510002420000000000088C34000000000006AF84069
S315100024300000000080842E4100000000D01263418D
S315100024400000000084D797410000000065CDCD4103
S31510002450FFFFFFFFFFFFEFFFFFFFFFFFFFFFEF7F16
S315100024600000000065CDCD410000000065CDCDC156
S31510002470000000000000E03FFB799F501344D33F5B
S31510002480B3C8608B288AC63F000000000000F83FE2
S3151000249061436F63A787D23F71A379094F930A40AF
S315100024A0EF39FAFE422EE63F1655B5BBB16B024028
S315100024B00000000000002C40000000000000244036
S315100024C0000000000000184000000000000000405E
S315100024D0000000000000F03F2D431CEBE2361A3FCF
S30D100024E00000000080842E416B
S315100027D81000000000000000037A5200017C01017D
S315100027E81B0C02001000000018000000CCDEFFFFD2
S315100027F80A00000000000000100000002C00000075
S31510002808C8DEFFFF020000000000000044000000C0
S3151000281840000000C4DEFFFFBE00000000420E604C
S3151000282852940C930A9610950E9814971288049938
S315100028381681024689069208027C0AC142C842D20B
S3151000284844D3D444D5D644D7D842D944C9420E0025
S31510002858420B00007C000000880000003CDFFFFFF0
S31510002868E803000000420E60428906549208940C50
S31510002878930A950E810288045896100258D6620A51
S31510002888C142C842C942D244D3D442D5420E0044AA
S315100028980B4E961052D670961056D6028A96105827
S315100028A8D658961054D65096104ED65A96104AD6D2
S315100028B86E961042D66E961046D6026C961046D66E
S315100028C86E961048D6024C961042D602549610426E
S315100028D8D60000001000000008010000ACE2FFFF5F
S315100028E80A00000000000000100000001C01000093
S315100028F8A8E2FFFF0A0000000000000084000000A4
S3151000290830010000A4E2FFFF2A04000000420E80F6
S315100029180142940C5489069208930A950E961081D2
S315100029280288040320010AC842C146D642D446D3B7
S3151000293842D546D242C9420E00440B4C97129814FF
S3151000294899160278D742D842D9420AC144C842C910
S3151000295842D242D342D442D542D6420E00440B024A
S31510002968A20AC842C146D642D446D342D546D24216
S31510002978C9420E00420B46971298149916027ED732
S31510002988D8D9000070000000B80100004CE6FFFF1F
S315100029981A03000000420E6042920852940C930AE1
S315100029A888048906950E81027C961097129814034E
S315100029B88C01D642D742D860C842C142C942D244D5
S315100029C8D3D442D5420E00440E608102880489068B
S315100029D89208930A940C950E96109712981402AEB4
S315100029E80AC142C842D642D742D842D244D3D44268
S315100029F8D544C9420E00440BA80000002C02000062
S31510002A08F8E8FFFFD006000000420EA0014C92081D
S31510002A18930A940C9B1A810288045C971248950EA7
S31510002A2850890696109A189916035401C942D54228
S31510002A38D642D742D942DA5AC144C842D242D342C0
S31510002A48D442DB420E00440EA00181028804890696
S31510002A589208930A940C950E9610971299169A182E
S31510002A689B1A02AA98140268D8029898140240D899
S31510002A78580A98145C0B7498140294D84298140245
S31510002A887ED878C9D5D6D7D9DA448906950E961040
S31510002A989712981499169A1802460AD8420B025E8B
S31510002AA80AD8420B18000000D80200001CEFFFFFDE
S31510002AB81E00000000420E2052810246C1420E003E
S31510002AC818000000F402000020EFFFFF16000000B7
S31510002AD800420E1048810246C1440E001C00000038
S31510002AE81003000024EFFFFF2E00000000420E1016
S31510002AF8448804810262C1C8440E00001000000018
S31510002B083003000034EFFFFF06000000000000004D
S31510002B18180000004403000030EFFFFF32000000E9
S31510002B2800420E605E81124EC1420E00180000006F
S31510002B386003000054EFFFFF3200000000420E5001
S31510002B485E810E4EC1420E00180000007C03000084
S31510002B5878EFFFFF3200000000420E505E810E4EE5
S31510002B68C1420E0010000000980300009CEFFFFF02
S31510002B7818000000000000001C000000AC03000054
S31510002B88A8EFFFFF3600000000420E605E810E526D
S31510002B98C1420E000000000014000000CC03000023
S31510002BA8C8EFFFFF0E00000000420E104A0E00008C
S31510002BB814000000E4030000C0EFFFFF0C00000043
S31510002BC8000000000000000010000000FC030000D8
S31510002BD8C8EFFFFF3A0000000000000010000000D8
S31510002BE810040000F4EFFFFF5E0000000000000074
S31510002BF8100000002404000040F0FFFF76000000DB
S31510002C08000000001000000038040000ACF0FFFFC0
S31510002C182C00000000000000100000004C0400000A
S31510002C28C8F0FFFF040000000000000010000000BC
S31510002C3860040000C4F0FFFF04000000000000005C
S31510002C481000000074040000C0F0FFFF140000001C
S31510002C58000000001000000088040000CCF0FFFF00
S31510002C686601000000000000100000009C0400002F
S31510002C7828F2FFFF0E000000000000001000000000
S31510002C88B004000024F2FFFF20000000000000003E
S31510002C9814000000C404000030F2FFFF0400000016
S31510002CA8000000000000000038000000DC040000EE
S31510002CB828F2FFFFAE00000000420E404496109521
S31510002CC80E50940C930A9208890688048102026AA7
S31510002CD80AC1C844C9D244D3D444D5D6420E0042F8
S31510002CE80B00000018000000180500009CF2FFFFFA
S31510002CF82200000000420E504A810E52C1420E00B8
S31510002D081400000034050000B0F2FFFF18000000A0
S31510002D180000000000000000100000004C05000034
S31510002D28C8F2FFFF040000000000000010000000B9
S31510002D3860050000C4F2FFFF040000000000000058
S31510002D481400000074050000C0F2FFFF0400000024
S31510002D580000000000000000100000008C050000B4
S31510002D68B8F2FFFF0E00000000000000300000005F
S31510002D78A0050000B4F2FFFFD400000000420E3098
S31510002D88500EB0608804810292088906930A02B22E
S31510002D980E3044C1C844C9D242D3440E00000000C4
S31510002DA81C000000D405000060F3FFFF440000007B
S31510002DB800420E3044880481020238C1C8440E000D
S31510002DC810000000F4050000A0F3FFFF0200000049
S31510002DD80000000010000000080600009CF3FFFF2A
S30D10002DE80200000000000000CB
S31510002DF0011B033BE4F9FFFF2A000000D0D8FFFFB8
S31510002E00FCF9FFFFE0D8FFFF10FAFFFFF0D8FFFF35
S31510002E1024FAFFFFB0D9FFFF6CFAFFFFA0DDFFFF1A
S31510002E20ECFAFFFFB0DDFFFF00FBFFFFC0DDFFFF89
S31510002E3014FBFFFFF0E1FFFF9CFBFFFF10E5FFFF18
S31510002E4010FCFFFFE0EBFFFFBCFCFFFF00ECFFFFF9
S31510002E50D8FCFFFF20ECFFFFF4FCFFFF50ECFFFF58
S31510002E6014FDFFFF60ECFFFF28FDFFFFA0ECFFFF46
S31510002E7044FDFFFFE0ECFFFF60FDFFFF20EDFFFFCD
S31510002E807CFDFFFF40EDFFFF90FDFFFF80EDFFFF94
S31510002E90B0FDFFFF90EDFFFFC8FDFFFFB0EDFFFF98
S31510002EA0E0FDFFFFF0EDFFFFF4FDFFFF50EEFFFF2B
S31510002EB008FEFFFFD0EEFFFF1CFEFFFF00EFFFFF37
S31510002EC030FEFFFF10EFFFFF44FEFFFF20EFFFFF76
S31510002ED058FEFFFF40EFFFFF6CFEFFFFB0F0FFFF55
S31510002EE080FEFFFFC0F0FFFF94FEFFFFE0F0FFFF44
S31510002EF0A8FEFFFFF0F0FFFFC0FEFFFFA0F1FFFFEF
S31510002F00FCFEFFFFD0F1FFFF18FFFFFF00F2FFFFEF
S31510002F1030FFFFFF10F2FFFF44FFFFFF20F2FFFF1D
S31510002F2058FFFFFF30F2FFFF70FFFFFF40F2FFFF79
S31510002F3084FFFFFF20F3FFFFB8FFFFFF80F3FFFFC3
S31110002F40D8FFFFFF90F3FFFFECFFFFFF30
S70510000000EA
